{
  "_format": "hh-sol-artifact-1",
  "contractName": "Voting",
  "sourceName": "contracts/Voting.sol",
  "abi": [
    {
      "inputs": [],
      "stateMutability": "nonpayable",
      "type": "constructor"
    },
    {
      "anonymous": false,
      "inputs": [
        {
          "indexed": true,
          "internalType": "address",
          "name": "previousOwner",
          "type": "address"
        },
        {
          "indexed": true,
          "internalType": "address",
          "name": "newOwner",
          "type": "address"
        }
      ],
      "name": "OwnershipTransferred",
      "type": "event"
    },
    {
      "anonymous": false,
      "inputs": [
        {
          "indexed": false,
          "internalType": "uint256",
          "name": "proposalId",
          "type": "uint256"
        }
      ],
      "name": "ProposalRegistered",
      "type": "event"
    },
    {
      "anonymous": false,
      "inputs": [
        {
          "indexed": false,
          "internalType": "address",
          "name": "voter",
          "type": "address"
        },
        {
          "indexed": false,
          "internalType": "uint256",
          "name": "proposalId",
          "type": "uint256"
        }
      ],
      "name": "Voted",
      "type": "event"
    },
    {
      "anonymous": false,
      "inputs": [
        {
          "indexed": false,
          "internalType": "address",
          "name": "voterAddress",
          "type": "address"
        }
      ],
      "name": "VoterRegistered",
      "type": "event"
    },
    {
      "anonymous": false,
      "inputs": [
        {
          "indexed": false,
          "internalType": "enum Voting.WorkflowStatus",
          "name": "previousStatus",
          "type": "uint8"
        },
        {
          "indexed": false,
          "internalType": "enum Voting.WorkflowStatus",
          "name": "newStatus",
          "type": "uint8"
        }
      ],
      "name": "WorkflowStatusChange",
      "type": "event"
    },
    {
      "inputs": [],
      "name": "closeProposals",
      "outputs": [],
      "stateMutability": "nonpayable",
      "type": "function"
    },
    {
      "inputs": [],
      "name": "closeVotes",
      "outputs": [],
      "stateMutability": "nonpayable",
      "type": "function"
    },
    {
      "inputs": [],
      "name": "countVoters",
      "outputs": [
        {
          "internalType": "uint256",
          "name": "",
          "type": "uint256"
        }
      ],
      "stateMutability": "view",
      "type": "function"
    },
    {
      "inputs": [],
      "name": "countVotes",
      "outputs": [
        {
          "internalType": "uint256",
          "name": "",
          "type": "uint256"
        }
      ],
      "stateMutability": "view",
      "type": "function"
    },
    {
      "inputs": [],
      "name": "getProposals",
      "outputs": [
        {
          "components": [
            {
              "internalType": "string",
              "name": "description",
              "type": "string"
            },
            {
              "internalType": "uint256",
              "name": "voteCount",
              "type": "uint256"
            }
          ],
          "internalType": "struct Voting.Proposal[]",
          "name": "",
          "type": "tuple[]"
        }
      ],
      "stateMutability": "view",
      "type": "function"
    },
    {
      "inputs": [
        {
          "internalType": "address",
          "name": "_idVoter",
          "type": "address"
        }
      ],
      "name": "getVote",
      "outputs": [
        {
          "components": [
            {
              "internalType": "string",
              "name": "description",
              "type": "string"
            },
            {
              "internalType": "uint256",
              "name": "voteCount",
              "type": "uint256"
            }
          ],
          "internalType": "struct Voting.Proposal",
          "name": "",
          "type": "tuple"
        }
      ],
      "stateMutability": "view",
      "type": "function"
    },
    {
      "inputs": [],
      "name": "getWinner",
      "outputs": [
        {
          "components": [
            {
              "internalType": "string",
              "name": "description",
              "type": "string"
            },
            {
              "internalType": "uint256",
              "name": "voteCount",
              "type": "uint256"
            }
          ],
          "internalType": "struct Voting.Proposal[]",
          "name": "",
          "type": "tuple[]"
        }
      ],
      "stateMutability": "view",
      "type": "function"
    },
    {
      "inputs": [],
      "name": "getWinningList",
      "outputs": [
        {
          "internalType": "uint256[]",
          "name": "",
          "type": "uint256[]"
        }
      ],
      "stateMutability": "view",
      "type": "function"
    },
    {
      "inputs": [],
      "name": "openProposals",
      "outputs": [],
      "stateMutability": "nonpayable",
      "type": "function"
    },
    {
      "inputs": [],
      "name": "openVotes",
      "outputs": [],
      "stateMutability": "nonpayable",
      "type": "function"
    },
    {
      "inputs": [],
      "name": "owner",
      "outputs": [
        {
          "internalType": "address",
          "name": "",
          "type": "address"
        }
      ],
      "stateMutability": "view",
      "type": "function"
    },
    {
      "inputs": [],
      "name": "pickWinner",
      "outputs": [],
      "stateMutability": "nonpayable",
      "type": "function"
    },
    {
      "inputs": [
        {
          "internalType": "uint256",
          "name": "",
          "type": "uint256"
        }
      ],
      "name": "proposals",
      "outputs": [
        {
          "internalType": "string",
          "name": "description",
          "type": "string"
        },
        {
          "internalType": "uint256",
          "name": "voteCount",
          "type": "uint256"
        }
      ],
      "stateMutability": "view",
      "type": "function"
    },
    {
      "inputs": [
        {
          "internalType": "address[]",
          "name": "_list",
          "type": "address[]"
        }
      ],
      "name": "registerListVoter",
      "outputs": [],
      "stateMutability": "nonpayable",
      "type": "function"
    },
    {
      "inputs": [],
      "name": "renounceOwnership",
      "outputs": [],
      "stateMutability": "nonpayable",
      "type": "function"
    },
    {
      "inputs": [
        {
          "internalType": "string",
          "name": "_proposal",
          "type": "string"
        }
      ],
      "name": "sendProposal",
      "outputs": [],
      "stateMutability": "nonpayable",
      "type": "function"
    },
    {
      "inputs": [],
      "name": "state",
      "outputs": [
        {
          "internalType": "enum Voting.WorkflowStatus",
          "name": "",
          "type": "uint8"
        }
      ],
      "stateMutability": "view",
      "type": "function"
    },
    {
      "inputs": [
        {
          "internalType": "address",
          "name": "newOwner",
          "type": "address"
        }
      ],
      "name": "transferOwnership",
      "outputs": [],
      "stateMutability": "nonpayable",
      "type": "function"
    },
    {
      "inputs": [
        {
          "internalType": "uint256",
          "name": "_proposalId",
          "type": "uint256"
        }
      ],
      "name": "voteProposal",
      "outputs": [],
      "stateMutability": "nonpayable",
      "type": "function"
    },
    {
      "inputs": [
        {
          "internalType": "address",
          "name": "",
          "type": "address"
        }
      ],
      "name": "whiteList",
      "outputs": [
        {
          "internalType": "bool",
          "name": "isRegistered",
          "type": "bool"
        },
        {
          "internalType": "bool",
          "name": "hasVoted",
          "type": "bool"
        },
        {
          "internalType": "uint256",
          "name": "votedProposalId",
          "type": "uint256"
        }
      ],
      "stateMutability": "view",
      "type": "function"
    },
    {
      "inputs": [
        {
          "internalType": "uint256",
          "name": "",
          "type": "uint256"
        }
      ],
      "name": "winningProposalId",
      "outputs": [
        {
          "internalType": "uint256",
          "name": "",
          "type": "uint256"
        }
      ],
      "stateMutability": "view",
      "type": "function"
    },
    {
      "inputs": [
        {
          "internalType": "uint256",
          "name": "",
          "type": "uint256"
        }
      ],
      "name": "winningProposals",
      "outputs": [
        {
          "internalType": "string",
          "name": "description",
          "type": "string"
        },
        {
          "internalType": "uint256",
          "name": "voteCount",
          "type": "uint256"
        }
      ],
      "stateMutability": "view",
      "type": "function"
    }
  ],
  "bytecode": "0x60806040523480156200001157600080fd5b5062000032620000266200007660201b60201c565b6200007e60201b60201c565b6000600860006101000a81548160ff021916908360058111156200005b576200005a62000142565b5b02179055506000600381905550600060048190555062000171565b600033905090565b60008060009054906101000a900473ffffffffffffffffffffffffffffffffffffffff169050816000806101000a81548173ffffffffffffffffffffffffffffffffffffffff021916908373ffffffffffffffffffffffffffffffffffffffff1602179055508173ffffffffffffffffffffffffffffffffffffffff168173ffffffffffffffffffffffffffffffffffffffff167f8be0079c531659141344cd1fd0a4f28419497f9722a3daafe3b4186f6b6457e060405160405180910390a35050565b7f4e487b7100000000000000000000000000000000000000000000000000000000600052602160045260246000fd5b6130bb80620001816000396000f3fe608060405234801561001057600080fd5b50600436106101425760003560e01c80638d337b81116100b8578063b647990a1161007c578063b647990a1461030b578063c19d93fb14610329578063d903170a14610347578063e96b3ad514610377578063f2fde38b14610393578063f438dcd8146103af57610142565b80638d337b811461028b5780638da5cb5b146102bb5780638e7ea5b2146102d95780638f73f9a0146102f7578063ab19c8a21461030157610142565b80634656ef661161010a5780634656ef66146101ee5780635d495aea1461020c57806362564c4814610216578063715018a614610234578063806d7bd71461023e578063807896d51461026f57610142565b8063013cf08b146101475780631cf792ec14610178578063372c12b1146101825780633c19b88b146101b45780634546ad06146101d2575b600080fd5b610161600480360381019061015c9190611c82565b6103b9565b60405161016f929190611d4e565b60405180910390f35b610180610475565b005b61019c60048036038101906101979190611ddc565b61055b565b6040516101ab93929190611e24565b60405180910390f35b6101bc61059f565b6040516101c99190611f19565b60405180910390f35b6101ec60048036038101906101e79190612070565b6105f7565b005b6101f66107b9565b60405161020391906120b9565b60405180910390f35b6102146107bf565b005b61021e610ab0565b60405161022b919061221d565b60405180910390f35b61023c610bab565b005b61025860048036038101906102539190611c82565b610bbf565b604051610266929190611d4e565b60405180910390f35b61028960048036038101906102849190611c82565b610c7b565b005b6102a560048036038101906102a09190611ddc565b610fab565b6040516102b2919061227c565b60405180910390f35b6102c3611287565b6040516102d091906122ad565b60405180910390f35b6102e16112b0565b6040516102ee919061221d565b60405180910390f35b6102ff611420565b005b610309611506565b005b6103136115ec565b60405161032091906120b9565b60405180910390f35b6103316115f2565b60405161033e919061233f565b60405180910390f35b610361600480360381019061035c9190611c82565b611605565b60405161036e91906120b9565b60405180910390f35b610391600480360381019061038c9190612422565b611629565b005b6103ad60048036038101906103a89190611ddc565b611876565b005b6103b76118f9565b005b600681815481106103c957600080fd5b90600052602060002090600202016000915090508060000180546103ec9061249a565b80601f01602080910402602001604051908101604052809291908181526020018280546104189061249a565b80156104655780601f1061043a57610100808354040283529160200191610465565b820191906000526020600020905b81548152906001019060200180831161044857829003601f168201915b5050505050908060010154905082565b61047d6119df565b60036005811115610491576104906122c8565b5b600860009054906101000a900460ff1660058111156104b3576104b26122c8565b5b146104f3576040517f08c379a00000000000000000000000000000000000000000000000000000000081526004016104ea90612517565b60405180910390fd5b6004600860006101000a81548160ff02191690836005811115610519576105186122c8565b5b02179055507f0a97a4ee45751e2abf3e4fc8946939630b11b371ea8ae39ccdc3056e98f5cc3f60036004604051610551929190612537565b60405180910390a1565b60056020528060005260406000206000915090508060000160009054906101000a900460ff16908060000160019054906101000a900460ff16908060010154905083565b606060028054806020026020016040519081016040528092919081815260200182805480156105ed57602002820191906000526020600020905b8154815260200190600101908083116105d9575b5050505050905090565b60011515600560003373ffffffffffffffffffffffffffffffffffffffff1673ffffffffffffffffffffffffffffffffffffffff16815260200190815260200160002060000160009054906101000a900460ff1615151461068d576040517f08c379a0000000000000000000000000000000000000000000000000000000008152600401610684906125ac565b60405180910390fd5b600160058111156106a1576106a06122c8565b5b600860009054906101000a900460ff1660058111156106c3576106c26122c8565b5b14610703576040517f08c379a00000000000000000000000000000000000000000000000000000000081526004016106fa9061263e565b60405180910390fd5b60006040518060400160405280838152602001600081525090506006819080600181540180825580915050600190039060005260206000209060020201600090919091909150600082015181600001908161075e919061280a565b506020820151816001015550507f92e393e9b54e2f801d3ea4beb0c5e71a21cc34a5d34b77d0fb8a3aa1650dc18f6107966001611a5d565b6040516107a391906120b9565b60405180910390a16107b56001611a6b565b5050565b60035481565b6107c76119df565b600460058111156107db576107da6122c8565b5b600860009054906101000a900460ff1660058111156107fd576107fc6122c8565b5b1461083d576040517f08c379a000000000000000000000000000000000000000000000000000000000815260040161083490612928565b60405180910390fd5b6000805b61084b6001611a5d565b811015610a4657816006828154811061086757610866612948565b5b906000526020600020906002020160010154111561096e576006818154811061089357610892612948565b5b9060005260206000209060020201600101549150600060028054905011156108d257600260006108c39190611b4d565b600760006108d19190611b6e565b5b600281908060018154018082558091505060019003906000526020600020016000909190919091505560076006828154811061091157610910612948565b5b906000526020600020906002020190806001815401808255809150506001900390600052602060002090600202016000909190919091506000820181600001908161095c919061298d565b50600182015481600101555050610a33565b816006828154811061098357610982612948565b5b90600052602060002090600202016001015403610a325760028190806001815401808255809150506001900390600052602060002001600090919091909150556007600682815481106109d9576109d8612948565b5b9060005260206000209060020201908060018154018082558091505060019003906000526020600020906002020160009091909190915060008201816000019081610a24919061298d565b506001820154816001015550505b5b8080610a3e90612aa4565b915050610841565b506005600860006101000a81548160ff02191690836005811115610a6d57610a6c6122c8565b5b02179055507f0a97a4ee45751e2abf3e4fc8946939630b11b371ea8ae39ccdc3056e98f5cc3f60046005604051610aa5929190612537565b60405180910390a150565b60606006805480602002602001604051908101604052809291908181526020016000905b82821015610ba25783829060005260206000209060020201604051806040016040529081600082018054610b079061249a565b80601f0160208091040260200160405190810160405280929190818152602001828054610b339061249a565b8015610b805780601f10610b5557610100808354040283529160200191610b80565b820191906000526020600020905b815481529060010190602001808311610b6357829003601f168201915b5050505050815260200160018201548152505081526020019060010190610ad4565b50505050905090565b610bb36119df565b610bbd6000611a81565b565b60078181548110610bcf57600080fd5b9060005260206000209060020201600091509050806000018054610bf29061249a565b80601f0160208091040260200160405190810160405280929190818152602001828054610c1e9061249a565b8015610c6b5780601f10610c4057610100808354040283529160200191610c6b565b820191906000526020600020905b815481529060010190602001808311610c4e57829003601f168201915b5050505050908060010154905082565b60011515600560003373ffffffffffffffffffffffffffffffffffffffff1673ffffffffffffffffffffffffffffffffffffffff16815260200190815260200160002060000160009054906101000a900460ff16151514610d11576040517f08c379a0000000000000000000000000000000000000000000000000000000008152600401610d08906125ac565b60405180910390fd5b60036005811115610d2557610d246122c8565b5b600860009054906101000a900460ff166005811115610d4757610d466122c8565b5b14610d87576040517f08c379a0000000000000000000000000000000000000000000000000000000008152600401610d7e90612517565b60405180910390fd5b60008110158015610da15750610d9d6001611a5d565b8111155b610de0576040517f08c379a0000000000000000000000000000000000000000000000000000000008152600401610dd790612b38565b60405180910390fd5b60001515600560003373ffffffffffffffffffffffffffffffffffffffff1673ffffffffffffffffffffffffffffffffffffffff16815260200190815260200160002060000160019054906101000a900460ff16151514610e76576040517f08c379a0000000000000000000000000000000000000000000000000000000008152600401610e6d90612ba4565b60405180910390fd5b6001600560003373ffffffffffffffffffffffffffffffffffffffff1673ffffffffffffffffffffffffffffffffffffffff16815260200190815260200160002060000160016101000a81548160ff02191690831515021790555080600560003373ffffffffffffffffffffffffffffffffffffffff1673ffffffffffffffffffffffffffffffffffffffff16815260200190815260200160002060010181905550600160068281548110610f2e57610f2d612948565b5b90600052602060002090600202016001016000828254610f4e9190612bc4565b92505081905550600160046000828254610f689190612bc4565b925050819055507f4d99b957a2bc29a30ebd96a7be8e68fe50a3c701db28a91436490b7d53870ca43382604051610fa0929190612bf8565b60405180910390a150565b610fb3611b92565b60011515600560003373ffffffffffffffffffffffffffffffffffffffff1673ffffffffffffffffffffffffffffffffffffffff16815260200190815260200160002060000160009054906101000a900460ff16151514611049576040517f08c379a0000000000000000000000000000000000000000000000000000000008152600401611040906125ac565b60405180910390fd5b60011515600560008473ffffffffffffffffffffffffffffffffffffffff1673ffffffffffffffffffffffffffffffffffffffff16815260200190815260200160002060000160009054906101000a900460ff161515146110df576040517f08c379a00000000000000000000000000000000000000000000000000000000081526004016110d690612c93565b60405180910390fd5b60011515600560008473ffffffffffffffffffffffffffffffffffffffff1673ffffffffffffffffffffffffffffffffffffffff16815260200190815260200160002060000160019054906101000a900460ff16151514611175576040517f08c379a000000000000000000000000000000000000000000000000000000000815260040161116c90612cff565b60405180910390fd5b6006600560008473ffffffffffffffffffffffffffffffffffffffff1673ffffffffffffffffffffffffffffffffffffffff16815260200190815260200160002060010154815481106111cb576111ca612948565b5b90600052602060002090600202016040518060400160405290816000820180546111f49061249a565b80601f01602080910402602001604051908101604052809291908181526020018280546112209061249a565b801561126d5780601f106112425761010080835404028352916020019161126d565b820191906000526020600020905b81548152906001019060200180831161125057829003601f168201915b505050505081526020016001820154815250509050919050565b60008060009054906101000a900473ffffffffffffffffffffffffffffffffffffffff16905090565b60606005808111156112c5576112c46122c8565b5b600860009054906101000a900460ff1660058111156112e7576112e66122c8565b5b14611327576040517f08c379a000000000000000000000000000000000000000000000000000000000815260040161131e90612d6b565b60405180910390fd5b6007805480602002602001604051908101604052809291908181526020016000905b82821015611417578382906000526020600020906002020160405180604001604052908160008201805461137c9061249a565b80601f01602080910402602001604051908101604052809291908181526020018280546113a89061249a565b80156113f55780601f106113ca576101008083540402835291602001916113f5565b820191906000526020600020905b8154815290600101906020018083116113d857829003601f168201915b5050505050815260200160018201548152505081526020019060010190611349565b50505050905090565b6114286119df565b6001600581111561143c5761143b6122c8565b5b600860009054906101000a900460ff16600581111561145e5761145d6122c8565b5b1461149e576040517f08c379a00000000000000000000000000000000000000000000000000000000081526004016114959061263e565b60405180910390fd5b6002600860006101000a81548160ff021916908360058111156114c4576114c36122c8565b5b02179055507f0a97a4ee45751e2abf3e4fc8946939630b11b371ea8ae39ccdc3056e98f5cc3f600160026040516114fc929190612537565b60405180910390a1565b61150e6119df565b60026005811115611522576115216122c8565b5b600860009054906101000a900460ff166005811115611544576115436122c8565b5b14611584576040517f08c379a000000000000000000000000000000000000000000000000000000000815260040161157b90612dfd565b60405180910390fd5b6003600860006101000a81548160ff021916908360058111156115aa576115a96122c8565b5b02179055507f0a97a4ee45751e2abf3e4fc8946939630b11b371ea8ae39ccdc3056e98f5cc3f600260036040516115e2929190612537565b60405180910390a1565b60045481565b600860009054906101000a900460ff1681565b6002818154811061161557600080fd5b906000526020600020016000915090505481565b6116316119df565b6000815111611675576040517f08c379a000000000000000000000000000000000000000000000000000000000815260040161166c90612e69565b60405180910390fd5b60005b815181101561187257600073ffffffffffffffffffffffffffffffffffffffff168282815181106116ac576116ab612948565b5b602002602001015173ffffffffffffffffffffffffffffffffffffffff160361170a576040517f08c379a000000000000000000000000000000000000000000000000000000000815260040161170190612ed5565b60405180910390fd5b60016005600084848151811061172357611722612948565b5b602002602001015173ffffffffffffffffffffffffffffffffffffffff1673ffffffffffffffffffffffffffffffffffffffff16815260200190815260200160002060000160006101000a81548160ff02191690831515021790555060006005600084848151811061179857611797612948565b5b602002602001015173ffffffffffffffffffffffffffffffffffffffff1673ffffffffffffffffffffffffffffffffffffffff16815260200190815260200160002060000160016101000a81548160ff0219169083151502179055506001600360008282546118079190612bc4565b925050819055507fb6be2187d059cc2a55fe29e0e503b566e1e0f8c8780096e185429350acffd3dd82828151811061184257611841612948565b5b602002602001015160405161185791906122ad565b60405180910390a1808061186a90612aa4565b915050611678565b5050565b61187e6119df565b600073ffffffffffffffffffffffffffffffffffffffff168173ffffffffffffffffffffffffffffffffffffffff16036118ed576040517f08c379a00000000000000000000000000000000000000000000000000000000081526004016118e490612f67565b60405180910390fd5b6118f681611a81565b50565b6119016119df565b60006005811115611915576119146122c8565b5b600860009054906101000a900460ff166005811115611937576119366122c8565b5b14611977576040517f08c379a000000000000000000000000000000000000000000000000000000000815260040161196e90612ff9565b60405180910390fd5b6001600860006101000a81548160ff0219169083600581111561199d5761199c6122c8565b5b02179055507f0a97a4ee45751e2abf3e4fc8946939630b11b371ea8ae39ccdc3056e98f5cc3f600060016040516119d5929190612537565b60405180910390a1565b6119e7611b45565b73ffffffffffffffffffffffffffffffffffffffff16611a05611287565b73ffffffffffffffffffffffffffffffffffffffff1614611a5b576040517f08c379a0000000000000000000000000000000000000000000000000000000008152600401611a5290613065565b60405180910390fd5b565b600081600001549050919050565b6001816000016000828254019250508190555050565b60008060009054906101000a900473ffffffffffffffffffffffffffffffffffffffff169050816000806101000a81548173ffffffffffffffffffffffffffffffffffffffff021916908373ffffffffffffffffffffffffffffffffffffffff1602179055508173ffffffffffffffffffffffffffffffffffffffff168173ffffffffffffffffffffffffffffffffffffffff167f8be0079c531659141344cd1fd0a4f28419497f9722a3daafe3b4186f6b6457e060405160405180910390a35050565b600033905090565b5080546000825590600052602060002090810190611b6b9190611bac565b50565b5080546000825560020290600052602060002090810190611b8f9190611bc9565b50565b604051806040016040528060608152602001600081525090565b5b80821115611bc5576000816000905550600101611bad565b5090565b5b80821115611bf45760008082016000611be39190611bf8565b600182016000905550600201611bca565b5090565b508054611c049061249a565b6000825580601f10611c165750611c35565b601f016020900490600052602060002090810190611c349190611bac565b5b50565b6000604051905090565b600080fd5b600080fd5b6000819050919050565b611c5f81611c4c565b8114611c6a57600080fd5b50565b600081359050611c7c81611c56565b92915050565b600060208284031215611c9857611c97611c42565b5b6000611ca684828501611c6d565b91505092915050565b600081519050919050565b600082825260208201905092915050565b60005b83811015611ce9578082015181840152602081019050611cce565b60008484015250505050565b6000601f19601f8301169050919050565b6000611d1182611caf565b611d1b8185611cba565b9350611d2b818560208601611ccb565b611d3481611cf5565b840191505092915050565b611d4881611c4c565b82525050565b60006040820190508181036000830152611d688185611d06565b9050611d776020830184611d3f565b9392505050565b600073ffffffffffffffffffffffffffffffffffffffff82169050919050565b6000611da982611d7e565b9050919050565b611db981611d9e565b8114611dc457600080fd5b50565b600081359050611dd681611db0565b92915050565b600060208284031215611df257611df1611c42565b5b6000611e0084828501611dc7565b91505092915050565b60008115159050919050565b611e1e81611e09565b82525050565b6000606082019050611e396000830186611e15565b611e466020830185611e15565b611e536040830184611d3f565b949350505050565b600081519050919050565b600082825260208201905092915050565b6000819050602082019050919050565b611e9081611c4c565b82525050565b6000611ea28383611e87565b60208301905092915050565b6000602082019050919050565b6000611ec682611e5b565b611ed08185611e66565b9350611edb83611e77565b8060005b83811015611f0c578151611ef38882611e96565b9750611efe83611eae565b925050600181019050611edf565b5085935050505092915050565b60006020820190508181036000830152611f338184611ebb565b905092915050565b600080fd5b600080fd5b7f4e487b7100000000000000000000000000000000000000000000000000000000600052604160045260246000fd5b611f7d82611cf5565b810181811067ffffffffffffffff82111715611f9c57611f9b611f45565b5b80604052505050565b6000611faf611c38565b9050611fbb8282611f74565b919050565b600067ffffffffffffffff821115611fdb57611fda611f45565b5b611fe482611cf5565b9050602081019050919050565b82818337600083830152505050565b600061201361200e84611fc0565b611fa5565b90508281526020810184848401111561202f5761202e611f40565b5b61203a848285611ff1565b509392505050565b600082601f83011261205757612056611f3b565b5b8135612067848260208601612000565b91505092915050565b60006020828403121561208657612085611c42565b5b600082013567ffffffffffffffff8111156120a4576120a3611c47565b5b6120b084828501612042565b91505092915050565b60006020820190506120ce6000830184611d3f565b92915050565b600081519050919050565b600082825260208201905092915050565b6000819050602082019050919050565b600082825260208201905092915050565b600061211c82611caf565b6121268185612100565b9350612136818560208601611ccb565b61213f81611cf5565b840191505092915050565b600060408301600083015184820360008601526121678282612111565b915050602083015161217c6020860182611e87565b508091505092915050565b6000612193838361214a565b905092915050565b6000602082019050919050565b60006121b3826120d4565b6121bd81856120df565b9350836020820285016121cf856120f0565b8060005b8581101561220b57848403895281516121ec8582612187565b94506121f78361219b565b925060208a019950506001810190506121d3565b50829750879550505050505092915050565b6000602082019050818103600083015261223781846121a8565b905092915050565b6000604083016000830151848203600086015261225c8282612111565b91505060208301516122716020860182611e87565b508091505092915050565b60006020820190508181036000830152612296818461223f565b905092915050565b6122a781611d9e565b82525050565b60006020820190506122c2600083018461229e565b92915050565b7f4e487b7100000000000000000000000000000000000000000000000000000000600052602160045260246000fd5b60068110612308576123076122c8565b5b50565b6000819050612319826122f7565b919050565b60006123298261230b565b9050919050565b6123398161231e565b82525050565b60006020820190506123546000830184612330565b92915050565b600067ffffffffffffffff82111561237557612374611f45565b5b602082029050602081019050919050565b600080fd5b600061239e6123998461235a565b611fa5565b905080838252602082019050602084028301858111156123c1576123c0612386565b5b835b818110156123ea57806123d68882611dc7565b8452602084019350506020810190506123c3565b5050509392505050565b600082601f83011261240957612408611f3b565b5b813561241984826020860161238b565b91505092915050565b60006020828403121561243857612437611c42565b5b600082013567ffffffffffffffff81111561245657612455611c47565b5b612462848285016123f4565b91505092915050565b7f4e487b7100000000000000000000000000000000000000000000000000000000600052602260045260246000fd5b600060028204905060018216806124b257607f821691505b6020821081036124c5576124c461246b565b5b50919050565b7f54686520766f74696e672073657373696f6e2069736e2774206f70656e656400600082015250565b6000612501601f83611cba565b915061250c826124cb565b602082019050919050565b60006020820190508181036000830152612530816124f4565b9050919050565b600060408201905061254c6000830185612330565b6125596020830184612330565b9392505050565b7f596f75277265206e6f742061207265676973746572656420766f746572000000600082015250565b6000612596601d83611cba565b91506125a182612560565b602082019050919050565b600060208201905081810360008301526125c581612589565b9050919050565b7f5468652070726f706f73616c7320726567697374726174696f6e2069736e277460008201527f206f70656e656400000000000000000000000000000000000000000000000000602082015250565b6000612628602783611cba565b9150612633826125cc565b604082019050919050565b600060208201905081810360008301526126578161261b565b9050919050565b60008190508160005260206000209050919050565b60006020601f8301049050919050565b600082821b905092915050565b6000600883026126c07fffffffffffffffffffffffffffffffffffffffffffffffffffffffffffffffff82612683565b6126ca8683612683565b95508019841693508086168417925050509392505050565b6000819050919050565b60006127076127026126fd84611c4c565b6126e2565b611c4c565b9050919050565b6000819050919050565b612721836126ec565b61273561272d8261270e565b848454612690565b825550505050565b600090565b61274a61273d565b612755818484612718565b505050565b5b818110156127795761276e600082612742565b60018101905061275b565b5050565b601f8211156127be5761278f8161265e565b61279884612673565b810160208510156127a7578190505b6127bb6127b385612673565b83018261275a565b50505b505050565b600082821c905092915050565b60006127e1600019846008026127c3565b1980831691505092915050565b60006127fa83836127d0565b9150826002028217905092915050565b61281382611caf565b67ffffffffffffffff81111561282c5761282b611f45565b5b612836825461249a565b61284182828561277d565b600060209050601f8311600181146128745760008415612862578287015190505b61286c85826127ee565b8655506128d4565b601f1984166128828661265e565b60005b828110156128aa57848901518255600182019150602085019450602081019050612885565b868310156128c757848901516128c3601f8916826127d0565b8355505b6001600288020188555050505b505050505050565b7f54686520766f74696e672073657373696f6e2069736e277420636c6f73656400600082015250565b6000612912601f83611cba565b915061291d826128dc565b602082019050919050565b6000602082019050818103600083015261294181612905565b9050919050565b7f4e487b7100000000000000000000000000000000000000000000000000000000600052603260045260246000fd5b6000815490506129868161249a565b9050919050565b81810361299b575050612a73565b6129a482612977565b67ffffffffffffffff8111156129bd576129bc611f45565b5b6129c7825461249a565b6129d282828561277d565b6000601f831160018114612a0157600084156129ef578287015490505b6129f985826127ee565b865550612a6c565b601f198416612a0f8761265e565b9650612a1a8661265e565b60005b82811015612a4257848901548255600182019150600185019450602081019050612a1d565b86831015612a5f5784890154612a5b601f8916826127d0565b8355505b6001600288020188555050505b5050505050505b565b7f4e487b7100000000000000000000000000000000000000000000000000000000600052601160045260246000fd5b6000612aaf82611c4c565b91507fffffffffffffffffffffffffffffffffffffffffffffffffffffffffffffffff8203612ae157612ae0612a75565b5b600182019050919050565b7f546869732070726f706f73616c20646f65736e27742065786973740000000000600082015250565b6000612b22601b83611cba565b9150612b2d82612aec565b602082019050919050565b60006020820190508181036000830152612b5181612b15565b9050919050565b7f596f7520616c726561647920766f746564000000000000000000000000000000600082015250565b6000612b8e601183611cba565b9150612b9982612b58565b602082019050919050565b60006020820190508181036000830152612bbd81612b81565b9050919050565b6000612bcf82611c4c565b9150612bda83611c4c565b9250828201905080821115612bf257612bf1612a75565b5b92915050565b6000604082019050612c0d600083018561229e565b612c1a6020830184611d3f565b9392505050565b7f5468697320706572736f6e2069736e277420612072656769737465726564207660008201527f6f74657200000000000000000000000000000000000000000000000000000000602082015250565b6000612c7d602483611cba565b9150612c8882612c21565b604082019050919050565b60006020820190508181036000830152612cac81612c70565b9050919050565b7f5468697320706572736f6e20686176656e277420766f74656400000000000000600082015250565b6000612ce9601983611cba565b9150612cf482612cb3565b602082019050919050565b60006020820190508181036000830152612d1881612cdc565b9050919050565b7f54686520766f74657320686176656e2774206265656e2074616c6c6965642021600082015250565b6000612d55602083611cba565b9150612d6082612d1f565b602082019050919050565b60006020820190508181036000830152612d8481612d48565b9050919050565b7f5468652070726f706f73616c7320726567697374726174696f6e2069736e277460008201527f20636c6f73656400000000000000000000000000000000000000000000000000602082015250565b6000612de7602783611cba565b9150612df282612d8b565b604082019050919050565b60006020820190508181036000830152612e1681612dda565b9050919050565b7f546865206c69737420697320656d707479202100000000000000000000000000600082015250565b6000612e53601383611cba565b9150612e5e82612e1d565b602082019050919050565b60006020820190508181036000830152612e8281612e46565b9050919050565b7f5468652061647265737320697320696e76616c69642021000000000000000000600082015250565b6000612ebf601783611cba565b9150612eca82612e89565b602082019050919050565b60006020820190508181036000830152612eee81612eb2565b9050919050565b7f4f776e61626c653a206e6577206f776e657220697320746865207a65726f206160008201527f6464726573730000000000000000000000000000000000000000000000000000602082015250565b6000612f51602683611cba565b9150612f5c82612ef5565b604082019050919050565b60006020820190508181036000830152612f8081612f44565b9050919050565b7f54686520766f7465727320726567697374726174696f6e2069736e277420636c60008201527f6f73656400000000000000000000000000000000000000000000000000000000602082015250565b6000612fe3602483611cba565b9150612fee82612f87565b604082019050919050565b6000602082019050818103600083015261301281612fd6565b9050919050565b7f4f776e61626c653a2063616c6c6572206973206e6f7420746865206f776e6572600082015250565b600061304f602083611cba565b915061305a82613019565b602082019050919050565b6000602082019050818103600083015261307e81613042565b905091905056fea264697066735822122040e1810a0aec4cc2c8387351be5a1bcfbdc584650b0a52685d60cb25f70bc8d164736f6c63430008110033",
  "linkReferences": {},
  "deployedLinkReferences": {}
}